:020000040800F2
:10000000E80700201D210008D5020008D7020008DB
:10001000DB020008DF020008E30200080000000025
:10002000000000000000000000000000E7020008DF
:10003000E902000800000000EB020008ED020008E1
:100040003721000837210008372100083721000830
:100050003721000837210008372100083721000820
:100060003721000837210008372100083721000810
:100070003721000837210008372100083721000800
:1000800037210008372100083721000837210008F0
:1000900037210008372100083721000837210008E0
:1000A00037210008372100083721000837210008D0
:1000B00037210008372100083721000837210008C0
:1000C00037210008372100083721000837210008B0
:1000D000372100089120000837210008CB080008CC
:1000E0003721000837210008372100083721000890
:1000F0003721000837210008372100083721000880
:10010000372100083721000837210008372100086F
:10011000372100083721000837210008372100085F
:10012000372100083721000837210008372100084F
:1001300000F002F800F04FF80AA090E8000C8244AA
:100140008344AAF10107DA4501D100F044F8AFF287
:10015000090EBAE80F0013F0010F18BFFB1A43F0A5
:10016000010318476435000084350000103A24BFAD
:1001700078C878C1FAD8520724BF30C830C144BF0C
:1001800004680C607047000000230024002500264E
:10019000103A28BF78C1FBD8520728BF30C148BFEA
:1001A0000B607047642902F0A186732903F07F80F9
:1001B000002070471FB59DE8030002F0B9FF03F06F
:1001C000C5F904000020002103F062FA401C6060C1
:1001D0001FBD10B510BD03F093F91146FFF7EAFFFC
:1001E00000F008F803F0C4F903B4FFF7F2FF03BC12
:1001F00001F0F0FE08B529480068009000260024B0
:10020000002501F07DFE4FF4A06001F0A7FF4FF440
:10021000E13001F0F1FE4FF4E13000F0FDF900F0C3
:1002200057F900F07BF900F0E0FA03E04FF4FA70C0
:1002300001F0A3FE01F0F8FA0028F7D10121684689
:1002400001F052FB29E0701C80B20646642809DBED
:1002500013A002F0CDFD17A11BA001F06CFB00263E
:1002600000F046FA002000F09EFA044614B1204641
:1002700001F08BFB681C85B21E2095FBF0F100FBA2
:10028000115038B91248006808B9012000E0002078
:100290000F4908600A2001F070FED4E7BC36000860
:1002A0004F6E654E65745F5075626C6973680D0AB8
:1002B000000000004D515454205075626C69736801
:1002C00020546573740000007063546F706963009C
:1002D00094812142704700BFFEE700BFFEE700BFE8
:1002E000FEE700BFFEE770477047704770470000A9
:1002F0000CB50020019000906C48006840F48030FC
:100300006A49086000BF6948006800F40030009046
:100310000198401C0190009818B90198B0F5A06FA1
:10032000F1D16248006800F4003010B10120009063
:1003300001E0002000900098012843D15C4800684B
:1003400040F010005A4908600846006820F0030099
:1003500008600846006840F00200086053484068A2
:10036000524948600846406848600846406840F482
:10037000806048600846406820F47C104860084669
:10038000406840F4E81048600846006840F080701B
:10039000086000BF4548006800F000700028F9D0F0
:1003A0004248406820F003004049486008464068E1
:1003B00040F00200486000BF3C48406800F00C007C
:1003C0000828F9D10CBD10B5FFF792FF10BD10B58C
:1003D0003648006840F0010034490860084640682B
:1003E00034490840314948600846006832490840AD
:1003F0002E4908600846006820F4802008600846FE
:10040000406820F4FE0048604FF41F008860FFF74A
:10041000DAFF4FF000602949086010BD10B50021D7
:1004200000200022214B5B6803F00C0121B104295C
:1004300006D0082928D107E0214B224C236027E071
:100440001F4B204C236023E0184B5B6803F47010B3
:10045000164B5B6803F48032022303EB904022B911
:10046000194B4343174C23600DE0104B5B6803F4BA
:10047000003323B1144B4343124C236003E0104B71
:100480004343104C236003E00D4B0E4C236000BF30
:1004900000BF064B5B68C3F303130C4CE15C094BD4
:1004A0001B68CB40074C236010BD000000100240C9
:1004B000002002400000FFF8FFFFF6FE08ED00E01C
:1004C00000127A000000002000093D000400002016
:1004D00008B50121482002F0CBF92020ADF800003A
:1004E00010208DF8030003208DF8020069460948AA
:1004F00001F002FF2021074801F0ABFF2020ADF8FA
:1005000000006946044801F0F7FE2021024801F08E
:10051000A0FF08BD000C01400018014008B50121F2
:10052000442002F0A5F91C20ADF8000048208DF809
:1005300003006946354801F0DFFE0120ADF80000F8
:1005400028208DF803006946314801F0D5FE08BD2A
:1005500010B5044614B101202E4908702D480078CA
:10056000002837D01021294801F059FF78B108211F
:10057000264801F054FF50B10421244801F04FFFF8
:1005800028B10121224801F04AFF012822D10A2086
:1005900001F0F3FC00201F49087010211B4801F0F6
:1005A0003EFF08B9012010BD0821184801F037FFAF
:1005B00008B90220F7E70421144801F030FF08B918
:1005C0000320F0E70121124801F029FF01281BD187
:1005D0000420E8E710210D4801F021FF012813D184
:1005E00008210A4801F01BFF01280DD1042107480A
:1005F00001F015FF012807D10121054801F00FFF87
:1006000010B90120034908700020CCE70018014010
:10061000000801401400002010B586B004460121F6
:10062000082002F025F90121880402F02EF94FF488
:100630008060ADF8140003208DF8160018208DF8A6
:10064000170005A9284801F057FE4FF40060ADF8E7
:10065000140004208DF8170005A9234801F04CFE72
:1006600027208DF8000003208DF801008DF802008E
:1006700001208DF80300684601F075FD019400200B
:10068000ADF80800ADF80A00ADF80C00ADF81000A8
:100690000C20ADF80E0001A9144802F090F90122D7
:1006A00040F22551114802F022FA01210F4802F0D0
:1006B00012FA06B010BD2DE9F04107460C4615466A
:1006C00000260DE014F8011B384602F071FA00BF55
:1006D0004021384602F0DAFA0028F9D0701C86B2C0
:1006E000AE42EFDBBDE8F081000C01400048004065
:1006F00010B58021844802F0D4FC00208349088092
:1007000010BD8248008808B9012070477F480088E2
:100710007F490988884203D100207C490880F4E79A
:100720007A4800887A4908800120EEE72DE9F041F7
:1007300004460D46C826204602F04FFC87B23A46D2
:1007400021467448FFF7B7FF0FE0FFF7DAFF48B91B
:1007500029466D4802F02FFC20B1FFF7C9FF0020A9
:10076000BDE8F0810A2001F008FC301EA6F101016D
:10077000CEB2EAD10120F3E730B589B004460D4688
:10078000FFF7B6FF2A4664A101A802F03DFB66A16F
:1007900001A8FFF7CBFF20B92A4621465D48FFF7A5
:1007A0008AFF09B030BD70B50546002400BFFFF7D1
:1007B000A8FF80B95DA1544802F0FDFB044654B186
:1007C0003A21204602F0DBFB044614B1641C2046AB
:1007D00070BD0020FCE7052001F0CFFB281EA5F12D
:1007E00001018DB2E3D100BFF2E708B50121042079
:1007F00002F03EF810208DF803008002ADF80000F2
:1008000003208DF8020069464A4801F075FD002278
:100810004FF48041474801F020FEFA2001F0ADFB83
:1008200001229103434801F018FE4FF4FA7001F0E1
:10083000A4FBFFF75DFF40A002F0DAFA03E04FF4FB
:10084000FA7001F09AFB3EA13EA0FFF76FFF00286F
:10085000F5D13EA002F0CCFA03E04FF4FA7001F0BB
:100860008CFB37A13CA0FFF761FF0028F5D13EA02B
:1008700002F0BEFA03E04FF4FA7001F07EFB30A103
:100880003DA0FFF753FF0028F5D13FA002F0B0FADA
:1008900003E04FF4FA7001F070FB3EA13FA0FFF7B8
:1008A00045FF0028F5D148A002F0A2FA03E04FF47A
:1008B000FA7001F062FB48A149A0FFF737FF00285A
:1008C000F5D154A002F094FA08BD10B540F22551BC
:1008D000104802F0F1F9B0B10C480088802802D32A
:1008E00000200A4908800B48001D0088C1B2074853
:1008F00002880088401C054B188003488154202141
:10090000044802F0D0F910BD3C0000201600002081
:10091000180000200048004041542B4349505345E3
:100920004E443D25640D0A003E0000004950442C11
:100930000000000000100140312E2041540D0A003B
:100940004F4B000041540D0A00000000322E20439E
:10095000574D4F44450D0A0041542B43574D4F44CA
:10096000453D310D0A000000332E2041542B4357E2
:10097000444843500D0A000041542B435744484318
:10098000503D312C310D0A00342E2043574A41503E
:100990000D0A0000474F54204950000041542B439A
:1009A000574A41503D22422D4C494E4B5F4437320D
:1009B000433345222C223135313235313435363806
:1009C00036220D0A00000000352E204349505354B2
:1009D0004152540D0A000000434F4E4E454354000F
:1009E00041542B43495053544152543D2254435097
:1009F000222C226D7174742E65636C69707365703E
:100A0000726F6A656374732E696F222C31383833C4
:100A10000D0A0000362E2045535038323636204914
:100A20006E6974204F4B0D0A0000000070B504463B
:100A30000E460025206898B901202073304602F048
:100A400080F920602068E0B100206060A66003E0CB
:100A50000020216848556D1CA068A842F8D810E015
:100A60000220207303E00020216848556D1CA06817
:100A7000A842F8D800206060A068B04201D20020EF
:100A8000206070BD10B50446207B012802D120688B
:100A900002F086F9002020606060A060207310BD25
:100AA0000246002301230DE002F07F000870D20906
:100AB0002AB1087840F080000870491C01E018460F
:100AC00070475B1C042BEFDD4FF0FF30F8E7F0B50B
:100AD00004460D462646012300201060002114E044
:100AE000775C07F07F07106807FB03001060705CFD
:100AF00000F0800008B9481CF0BDDB01B3F5001F11
:100B000002D36FF00100F7E7491CA942E8DB4FF080
:100B1000FF30F1E7F8B50446FF2720780511012DD5
:100B200001DB0E2D01DD3846F8BD032D24D1002058
:100B300000906A460421601CFFF7C9FF2044461C50
:100B40000098022803D3207800F0010008B1FF20AC
:100B5000EAE77078317840EA0120801C00998842E9
:100B600001D9FF20E0E7F8A1B01C02F024FA08B197
:100B70000F2700E0032700E02F463846D4E72DE991
:100B8000FF4F83B082468B469146159C002500207E
:100B900002900F270190484602F01FFA0FFA80F8E2
:100BA000B9F1000F03D1012007B0BDE8F08F08F1C3
:100BB0000200384487B2109808B145F00205129837
:100BC00078B145F00405129802F007FAC0B202901D
:100BD000139802F002FA01460298001D08443844B6
:100BE00087B2119820B1012804D0022808D104E06E
:100BF00000BF07E045F00C0504E045F0140501E0F6
:100C00000220D1E700BF149808B145F02405BAF1DD
:100C1000000F02D0BBF1000F01D10320C4E745F063
:100C2000C005504602F0D9F90646584602F0D5F9FB
:100C30003044001D384487B239462046FFF7F6FE9F
:100C4000206808B90420AFE73946206802F029FA85
:100C500010216268501C606020688154D4E9002330
:100C6000D118781FFFF71CFF00B2019001980028EF
:100C700004DA2046FFF706FF052095E76168019832
:100C80000844606000216268501C606020688154E4
:100C900004216268501C6060206881544D216268A4
:100CA000501C60602068815451216268501C606053
:100CB0002068815454216268501C6060206881540F
:100CC0006268501C60602068815404216268501C76
:100CD0006060206881546168481C606020684554E9
:100CE0000698010A6268501C60602068815406986A
:100CF000C1B26268501C606020688154C8F307214B
:100D00006268501C6060206881546268501C60609A
:100D1000206800F80280D4E900128818424649464B
:100D200002F037F960684044606005F00400B8B331
:100D30000026139808B986A01390129802F04DF976
:100D400086B2310A6268501C606020688154626813
:100D5000501C606020688654D4E90012881832461E
:100D6000129902F016F9606830446060139802F03E
:100D700034F986B2310A6268501C60602068815480
:100D80006268501C606020688654D4E9001288189C
:100D90003246139902F0FDF860683044606000BF8D
:100DA00005F08000C8B1504602F017F986B2310A4A
:100DB0006268501C6060206881546268501C6060EA
:100DC00020688654D4E9001288183246514602F051
:100DD000E0F860683044606000BF05F04000C8B1D2
:100DE000584602F0FAF886B2310A6268501C606018
:100DF000206881546268501C606020688654D4E981
:100E0000001288183246594602F0C3F86068304430
:100E1000606000BF0020C7E610B5044602212046EE
:100E2000FFF704FE206808B9012010BDE0216268C8
:100E3000501C60602068815400216268501C606012
:100E4000206881540020F0E701464878022801D04C
:100E500001207047887810B18878012801D1C878BE
:100E6000F7E7FF20F5E72DE9FF4F83B083461746EC
:100E70009946139C00250026002002900190804690
:100E8000BBF1000F03D1012007B0BDE8F08F0026B1
:100E90000AE00498805D232803D00498805D2B2805
:100EA00001D10220F0E7761C0498805D0028F0D183
:100EB00048F03008119808B148F0010806EB090025
:100EC000851C109820B1012804D002280AD105E021
:100ED00000BF09E048F00208AD1C05E048F0040836
:100EE000AD1C01E00320CFE700BF67B338780228CC
:100EF00021D14FF0000A00BF50460AF1010A385CC8
:100F00007D28F9D1AAF1030A0AF10700029002989C
:100F1000A9EB000AE81CA0EB0A012046FFF786FDBA
:100F2000206808B90420AFE7EA1CA2EB0A01206898
:100F300002F0B7F81FE0691D2046FFF777FD206833
:100F400040B90420A0E70AE0246372657100000044
:100F500000000000691D206802F0A3F80BE0691D85
:100F60002046FFF763FD206808B904208CE7691D5F
:100F7000206802F096F86168481C6060206800F8FC
:100F80000180D4E9000281182846FFF789FD01900D
:100F90000198002804DA2046FFF774FD052073E766
:100FA0006168019808446060C6F307216268501CBC
:100FB0006060206881546268501C606020688654BC
:100FC000D4E9001288183246049901F0E2FF606803
:100FD00030446060109860B14FEA1B216268501C79
:100FE0006060206881546268501C6060206800F86E
:100FF00002B0C7B1387802280BD1D4E900128818A2
:101000003946029A02F008F8616802980844606064
:1010100009E0D4E9001288184A46394601F0FCFF7D
:1010200060684844606000202EE72DE9FF410746D4
:101030000D4690461E460A9C01200021CDE9000184
:10104000EB1C0A46FAA1CDE902040A20FFF70BFFC8
:1010500088B96168481C606020684654C5F3072160
:101060006268501C6060206881546268501C606037
:101070002068855403E0012004B0BDE8F081002021
:10108000FAE72DE9F04F85B080460D4691460120E4
:1010900004900027002600244FF0000A404601F08B
:1010A0009CFF00F10D0B584601F04BFE07461FB99F
:1010B000049805B0BDE8F08F4246DEA1384601F045
:1010C000A3FE384601F089FFC6B2F01D00EB050A09
:1010D000AAEB050001F035FE044624B9384601F0BC
:1010E0005FFE0498E5E70220207000206070A67083
:1010F00032463946E01C01F08FFF290EF01C2154C6
:10110000C5F30741301D2154C5F30721701D21543B
:10111000B01D255401200021CDE90001534622468F
:10112000C3A1CDE902090A20FFF79DFE08B90020FE
:101130000490384601F034FE204601F031FE049858
:10114000B7E72DE9F84380460C4615461E462F2189
:1011500008F1060001F013FF07460020009017B9C0
:101160000120BDE8F8837F1C6A46042108F10100D4
:10117000FFF7ADFC252001F0E4FD2060206808B9F0
:101180000220EEE72521206801F08BFF242239465A
:10119000206801F041FF243700982C3830803188D6
:1011A000481C01F0CEFD2860286820B9206801F0B5
:1011B000F7FD0320D5E73288511C286801F071FF44
:1011C00032883946286801F027FF0020C9E72DE959
:1011D000FF5F07460D469046384601F0FEFE86B298
:1011E000284601F0FAFE1FFA80FA4FF00009F01DC0
:1011F00001F0A7FD04461CB9012004B0BDE8F09F32
:10120000F11D204601F04DFF8EA00168216080880D
:10121000A08032463946204601F0BBFE284601F048
:10122000DCFE83460120002100915B462A46CDE981
:101230000208019121460A20FFF715FE10B94FF070
:10124000000901E04FF00109204601F0A9FD4846E0
:10125000D3E72DE9FF5F8046174699460E9C00268E
:10126000B246B3460025B8F1000F03D1012004B007
:10127000BDE8F09F0BE057F8250008B90220F6E71B
:1012800057F8250001F0A9FE0644681CC5B24D457B
:10129000F1DB09EB4900801C00EB060A0AF10501AD
:1012A0002046FFF7C3FB206808B90320DFE782214F
:1012B0006268501C606020688154D4E90002811883
:1012C0005046FFF7EDFB0FFA80FBBBF1000F04DA8D
:1012D0002046FFF7D7FB0420C9E7606858446060E8
:1012E0004FEA18216268501C60602068815462686F
:1012F000501C6060206800F80280002524E057F848
:10130000250001F06AFE0646C6F307216268501CFC
:101310006060206881546268501C60602068865458
:10132000D4E90023D01857F82510324601F031FED9
:101330006068304460600198C1B26268501C6060AF
:1013400020688154681CC5B24D45D8DB00208EE76B
:101350000146FF208A78A2B9CA78142A11D10A79E5
:1013600032B1012A05D0022A04D0802A06D103E036
:1013700000BF00BF002003E0012001E0022000BF09
:1013800000BF70472DE9F05F80460F4691461C462E
:101390000026B246B3460025B8F1000F02D1012065
:1013A000BDE8F09F0BE057F8250008B90220F7E7E9
:1013B00057F8250001F011FE0644681CC5B24D45E2
:1013C000F1DB022000EB490000EB060A0AF10501FF
:1013D0002046FFF72BFB206808B90320E0E7A22195
:1013E0006268501C606020688154D4E90002811852
:1013F0005046FFF755FB0FFA80FBBBF1000F04DAF4
:101400002046FFF73FFB0420CAE76068584460604D
:101410004FEA18216268501C60602068815462683D
:10142000501C6060206800F8028000252CE000005D
:10143000246470007B2264735F6964223A222573FE
:10144000227D000024637273702F000057F825007E
:1014500001F0C3FD0646C6F307216268501C6060B8
:10146000206881546268501C606020688654D4E90A
:101470000023D01857F82510324601F08AFD606825
:1014800030446060681CC5B24D45DFDB002087E753
:10149000014601208A781AB9CA781E2A00D1002094
:1014A00070472DE9FC5F81460D4614461E46DDE976
:1014B0000C8B99F8000000F00F0A002001900AF050
:1014C00008000090CAF341008BF8000001AA042133
:1014D00009F10100FFF7FBFA4844471C0198022874
:1014E00002D30AF0010010B1FF20BDE8FC9F78781C
:1014F000397840EA012020802088801C01998842A8
:1015000001D9FF20F1E7AFF2C051B81C01F053FD43
:1015100008B10F20E9E79BF8000020B101283DD079
:10152000022877D13BE0009808B1FF20DDE7218851
:10153000481C01F006FC2860286808B9FF20D4E7A1
:101540002288511C286801F0ACFD2288B91C28684B
:1015500001F062FD0198801E2188401AA8F8000061
:10156000B8F80010481C01F0ECFB3060306820B97E
:10157000286801F015FCFF20B7E7B8F80020511CDF
:10158000306801F08EFDB8F80020B4F800C0BB1C34
:101590000CEB0301306801F03FFD4FE000BF2088F5
:1015A000801C0199884201D9FF209EE72088C01C39
:1015B000395C2088801C385C41EA00210E9801804B
:1015C0000E9808B9FF2090E72188481C01F0B9FB6C
:1015D0002860286808B9FF2087E72288511C2868FE
:1015E00001F05FFD2288B91C286801F015FD019803
:1015F000001F2188401AA8F80000B8F80010481C05
:1016000001F09FFB3060306828B9286801F0C8FB02
:10161000FF206AE710E0B8F80020511C306801F0A4
:1016200040FDB8F80020B4F800C03B1D0CEB0301EE
:10163000306801F0F1FC01E0FF2056E700BF2B21EC
:10164000284601F09CFC20B92321284601F097FC94
:1016500008B1FF2049E7002047E770B505460C4672
:1016600004212046FFF7E2F9206808B9012070BD87
:1016700040216268501C60602068815402216268C9
:10168000501C60602068815429126268501C6060A0
:10169000206881546268501C606020688554002076
:1016A000E5E701464878022801D001207047887894
:1016B00020B9C8780A2801D10020F7E70120F5E712
:1016C00070B505460C4604212046FFF7AFF92068A7
:1016D00008B9012070BD50216268501C606020680C
:1016E000815402216268501C606020688154291274
:1016F0006268501C6060206881546268501C6060A1
:10170000206885540020E5E701464878022801D08A
:1017100001207047887820B9C8780A2801D10020B4
:10172000F7E70120F5E770B505460C460421204691
:10173000FFF77CF9206808B9012070BD622162685A
:10174000501C60602068815402216268501C6060F7
:101750002068815429126268501C6060206881549E
:101760006268501C6060206885540020E5E70246EE
:101770005078022801D0012070479078B0EB112FEB
:1017800005D1D078CBB2984201D10020F4E70120F6
:10179000F2E770B505460C4604212046FFF746F9EE
:1017A000206808B9012070BD70216268501C60601B
:1017B0002068815402216268501C60602068815456
:1017C00029126268501C6060206881546268501C55
:1017D0006060206885540020E5E7014648780228CB
:1017E00001D001207047887820B9C8780A2801D133
:1017F0000020F7E70120F5E710B504460221204656
:10180000FFF714F9206808B9012010BDC0216268F3
:10181000501C60602068815400216268501C606028
:10182000206881540020F0E730B58BB0002007908D
:10183000089009900A900125DDA3DFA2E0A1E2A0B3
:1018400001F0D6FA07A8002102910391CDE9041016
:1018500000912B02D6A20191D7A1D9A0FFF78FF951
:1018600000283BD1089A91B20798FEF785FFFA202D
:10187000FEF799FF0446002C2CD02046FFF74AF9CA
:10188000022827D12046FFF7DFFA06281DD2DFE81D
:1018900000F003080C101418D7A001F0A9FA0025D5
:1018A00017E0DAA001F0A4FA13E0DFA001F0A0FA3B
:1018B0000FE0E6A001F09CFA0BE0ECA001F098FA32
:1018C00007E0F3A001F094FA03E0FCA001F090FA25
:1018D00000BF00BF07A8FFF7D5F802E0FEA001F0A7
:1018E00087FA28460BB030BD70B586B004460D4669
:1018F00000260020029003900490059006E054F822
:101900002610FEA001F074FA701CC6B2AE42F6DBDF
:1019100002A82B462246002100901420FFF799FCD4
:1019200038B9039A91B20298FEF726FF02A8FFF792
:10193000A9F806B070BD70B588B005460C46002009
:10194000049005900690079022462946F1A001F0E8
:101950004FFA204601F041FB064604A8012100226F
:1019600000923346CDE901210390224629460A2000
:10197000FFF779FA38B9059A91B20498FEF7FCFEA0
:1019800004A8FFF77FF808B070BD2DE9F04190B0D2
:10199000074600200C900D900E900F900B900A902F
:1019A00009900890002607900025002480463846BC
:1019B000FFF7B0F80646F01E0D2870D2DFE800F001
:1019C00028707890AACAB2CABECACACA070008ABB1
:1019D0000BAA0AA93846FFF7B4FB0546BDB9BDF806
:1019E0002030D4A0DDE90A1201F002FA0CAADDE9E8
:1019F0000A01FFF7ECFB50B9D7A001F0F9F90D9AF5
:101A000091B20C98FEF7B8FE0CA8FFF73BF8A4E0E3
:101A1000D74807A908AA0BABCDE90021029009AA73
:101A20000AA93846FFF73DFD0546002D36D1BDF821
:101A300020000090BDF82420CEA0DDE90A1301F0BB
:101A4000D7F99DF81C00012802D0022824D111E00A
:101A50000CA9C7480088FFF700FE50B9D4A001F0D8
:101A6000C7F90D9A91B20C98FEF786FE0CA8FFF705
:101A700009F812E00CA9BE480088FFF721FE50B912
:101A8000D1A001F0B5F90D9A91B20C98FEF774FE51
:101A90000CA8FEF7F7FF00E000BF00BF5DE059E0D3
:101AA0003846FFF7FEFD10B9CDA001F0A1F954E0D2
:101AB0003846FFF729FE90B9D1A001F099F90CA999
:101AC0000A20FFF730FE50B9D3A001F091F90D9A2A
:101AD00091B20C98FEF750FE0CA8FEF7D3FF3CE045
:101AE000A34801883846FFF742FE90B9D0A001F024
:101AF0007FF90CA90A20FFF74CFE50B9D2A001F0E3
:101B000077F90D9A91B20C98FEF736FE0CA8FEF705
:101B1000B9FF22E03846FFF760FE10B9D1A001F00E
:101B200067F91AE03846FFF713FC18B9D3A001F0A3
:101B30005FF902E0D8A001F05BF90EE03846FFF74C
:101B4000A7FC18B9DBA001F053F902E0E0A001F016
:101B50004FF902E04FF0FF3500BF00BFFEF7C8FDB0
:101B6000681C10B910B0BDE8F0817D210B9801F020
:101B700006FA0446A4B1681C90B1641C06E014F88F
:101B8000012B404608F1010804A90A5420783028A6
:101B900002DB20783928F2DD04A801F0E3F9804661
:101BA0000F2E01D0032E01D10A98A1E1A5E100007A
:101BB0003131323233333400746573740000000005
:101BC00031313232330000004F6E654E65745F4430
:101BD00065764C696E6B0D0A50524F49443A202588
:101BE000732C09415549463A2025732C0944455622
:101BF00049443A25730D0A00546970733A09C1AC1F
:101C0000BDD3B3C9B9A60D0A000000005741524E1A
:101C10003A09C1ACBDD3CAA7B0DCA3BAD0ADD2E9F2
:101C2000B4EDCEF30D0A00005741524E3A09C1AC53
:101C3000BDD3CAA7B0DCA3BAB7C7B7A8B5C4636C95
:101C400069656E7469640D0A000000005741524EC8
:101C50003A09C1ACBDD3CAA7B0DCA3BAB7FECEF176
:101C6000C6F7CAA7B0DC0D0A000000005741524E6B
:101C70003A09C1ACBDD3CAA7B0DCA3BAD3C3BBA7D2
:101C8000C3FBBBF2C3DCC2EBB4EDCEF30D0A000024
:101C90005741524E3A09C1ACBDD3CAA7B0DCA3BA72
:101CA000B7C7B7A8C1B4BDD328B1C8C8E7746F6BB4
:101CB000656EB7C7B7A8290D0A0000004552523A11
:101CC00009C1ACBDD3CAA7B0DCA3BACEB4D6AAB4FE
:101CD000EDCEF30D0A0000005741524E3A094D5126
:101CE00054545F5061636B6574436F6E6E656374CB
:101CF000204661696C65640D0A00000053756273CB
:101D0000637269626520546F7069633A2025730DB0
:101D10000A0000005075626C69736820546F706926
:101D2000633A2025732C204D73673A2025730D0AE2
:101D300000000000636D6469643A2025732C2072F2
:101D400065713A2025732C207265715F6C656E3A5F
:101D50002025640D0A000000546970733A09536528
:101D60006E6420436D64526573700D0A00000000BC
:101D70001A000020746F7069633A2025732C207458
:101D80006F7069635F6C656E3A2025642C2070610A
:101D9000796C6F61643A2025732C207061796C6FC7
:101DA00061645F6C656E3A2025640D0A00000000D6
:101DB000546970733A0953656E64205075626C699A
:101DC000736841636B0D0A00546970733A09536577
:101DD0006E64205075626C6973685265630D0A0009
:101DE000546970733A094D515454205075626C69AE
:101DF00073682053656E64204F4B0D0A000000008D
:101E0000546970733A09526576205075626C697333
:101E1000685265630D0A0000546970733A0953658E
:101E20006E64205075626C69736852656C0D0A00AF
:101E3000546970733A09526576205075626C697303
:101E40006852656C0D0A0000546970733A09536555
:101E50006E64205075626C697368436F6D700D0A13
:101E600000000000546970733A095265762050757D
:101E7000626C697368436F6D700D0A00546970730A
:101E80003A094D5154542053756273637269626507
:101E9000204F4B0D0A000000546970733A094D51F0
:101EA000545420537562736372696265204572727F
:101EB0000D0A0000546970733A094D51545420556D
:101EC0006E537562736372696265204F4B0D0A0031
:101ED000546970733A094D51545420556E537562CC
:101EE000736372696265204572720D0A000000001A
:101EF00000F056FF0B9800F053FF00BF32E60000E1
:101F000010B56FF0040000F078F92E4800682E49F3
:101F1000B0FBF1F02D4908700846007800EB400155
:101F2000C1EBC0104FF6FF7101EAC00028490880DC
:101F300010BD0146254A12784A434FF0E0235A610A
:101F400000229A611A46126942F001021A6100BF2A
:101F50004FF0E022106900F001021AB100F4803263
:101F6000002AF5D04FF0E022126922F001024FF072
:101F7000E0231A6100229A6170470146144A1288D0
:101F80004A434FF0E0235A6100229A611A461269CF
:101F900042F001021A6100BF4FF0E022106900F028
:101FA00001021AB100F48032002AF5D04FF0E0228D
:101FB000126922F001024FF0E0231A6100229A61B7
:101FC000704700000000002000127A001C00002072
:101FD0001E000020014600BF7047014600BF704749
:101FE00000BF4A4A128802F04002002AF9D0C2B269
:101FF000464B1B1D1A80704710B586B00446012160
:1020000044F2040000F034FC4FF40070ADF814000A
:1020100003208DF8160018208DF8170005A93C48FC
:1020200000F06AF94FF48060ADF8140004208DF8D8
:10203000170005A9364800F05FF925208DF800004B
:1020400003208DF801008DF8020001208DF80300B7
:10205000684600F088F801940020ADF80800ADF85B
:102060000A00ADF80C00ADF810000C20ADF80E0021
:1020700001A9264800F0A3FC012240F22551234883
:1020800000F035FD0121214800F025FD06B010BD0E
:1020900010B540F225511D4800F00EFE10B31B484C
:1020A00000F08AFDC4B21B48008800F40040C8B9A3
:1020B0001848008800F4804060B10A2C03D000204A
:1020C0001449088020E01348008840F4004011497A
:1020D000088019E00D2C06D10E48008840F480409D
:1020E0000C49088010E00B480088C0F30D000A4935
:1020F0000C5408480088401C06490880084600889F
:10210000C72801DD0020088010BD00000038014014
:102110000008014024000020BC000020094880473E
:1021200009480047FEE7FEE7FEE7FEE7FEE7FEE7B9
:10213000FEE7FEE7FEE7FEE704480549054A064BD1
:1021400070470000CF03000831010008E8010020BB
:10215000E8070020E8030020E8030020314901439C
:10216000314A1160704770B5002100230F22C478F6
:1021700004B32D4C246804F4E064C4F5E064210A3F
:10218000C1F10403CA40447804FA03F1847814408E
:1021900021430901254C0678A155047804F01F0558
:1021A0000124AC4005786D11AD0005F1E025C5F8BE
:1021B000004109E0047804F01F050124AC401C4DE7
:1021C0000678761145F8264070BD1A4A0A40024347
:1021D000154B1B1F1A60704739B1134A121D126844
:1021E0000243114B1B1D1A6006E00F4A121D1268B4
:1021F00082430D4B1B1D1A607047042808D14FF015
:10220000E021096941F004014FF0E022116107E08B
:102210004FF0E021096921F004014FF0E022116143
:10222000704700000000FA050CED00E000E400E05B
:1022300080E100E080FFFF1F10B50446CC488442D7
:1022400008D10121042000F02DFB0021042000F022
:1022500029FB46E0C748844208D10121082000F04C
:1022600021FB0021082000F01DFB3AE0C248844217
:1022700008D10121102000F015FB0021102000F0F2
:1022800011FB2EE0BD48844208D10121202000F03E
:1022900009FB0021202000F005FB22E0B848844221
:1022A00008D10121402000F0FDFA0021402000F07B
:1022B000F9FA16E0B348844208D10121802000F0E9
:1022C000F1FA0021802000F0EDFA0AE0AE488442E5
:1022D00007D10121801500F0E5FA0021A01500F0DA
:1022E000E1FA10BD10B50121084600F0DBFA00212B
:1022F000012000F0D7FA10BD2DE9F041024600257B
:102300000026002000230024002791F803C00CF0D1
:102310000F0591F803C00CF0100CBCF1000F03D0B6
:1023200091F802C04CEA050591F800C0BCF1000F1D
:1023300031D0146800202BE04FF0010C0CFA00F3B0
:10234000B1F800C00CEA03069E4220D183004FF092
:102350000F0C0CFA03F7BC4305FA03FC4CEA040427
:1023600091F803C0BCF1280F06D14FF0010C0CFA14
:1023700000FCC2F814C00AE091F803C0BCF1480F99
:1023800005D14FF0010C0CFA00FCC2F810C0401C43
:102390000828D1D31460B1F800C0BCF1FF0F34DDC0
:1023A000546800202EE000F1080C4FF0010808FAF4
:1023B0000CF3B1F800C00CEA03069E4221D1830061
:1023C0004FF00F0C0CFA03F7BC4305FA03FC4CEA80
:1023D000040491F803C0BCF1280F05D100F1080CEA
:1023E00008FA0CF8C2F8148091F803C0BCF1480F49
:1023F00007D100F1080C4FF0010808FA0CF8C2F8F8
:102400001080401C0828CED35460BDE8F0814FF600
:10241000FF710180022181700421C1707047024662
:10242000002093680B400BB1012000E000207047B2
:102430000146886880B2704702460020D3680B408E
:102440000BB1012000E0002070470146C86880B24F
:10245000704701617047416170470AB1016100E056
:1024600041617047C16070474FF480320A43826116
:102470008161826182698269704702460020434B14
:1024800018684FF68073184040EA021008433F4B2B
:10249000186070473E49C8617047F0B50A4600238E
:1024A00000240021002500F00046B6F1004F02D1C3
:1024B000364EF16901E0354E7168C0F3034583B2D1
:1024C00000F44016B6F5401F08D121F070612F4E80
:1024D000766826F070662D4F7E6012E000F480165C
:1024E000B6F5801F06D1032606FA05F4A14341F094
:1024F000706106E0460D360103FA06F6B14341F07D
:10250000706122B1460D360103FA06F6314300F040
:102510000046B6F1004F02D11C4EF16101E01B4EA6
:102520007160F0BD30B500228B071C0F0F2303FA3A
:1025300004F2164B08338C1053F824309343134C99
:1025400008348D1044F8253023468C1053F824307D
:102550008C07240F00FA04F423430C4C08348D102C
:1025600044F8253030BD0A49DC310860704700006E
:1025700000080140000C014000100140001401401F
:1025800000180140001C01400020014000000140F3
:1025900000002042DF48006840F00100DD4908608B
:1025A00008464068DC490840DA4948600846006847
:1025B000DA490840D74908600846006820F48020BE
:1025C00008600846406820F4FE0048604FF41F0091
:1025D00088607047CF49096821F48031CD4A116085
:1025E0001146096821F480211160B0F5803F03D0C5
:1025F000B0F5802F0ED106E0C649096841F480315C
:10260000C44A116007E0C349096841F4A021C14AE6
:10261000116000E000BF00BF704710B50146002206
:10262000002300204A11012A02D1BA4C236806E097
:10263000022A02D1B74C236A01E0B64C636A01F06A
:102640001F02012494401C400CB1012000E0002036
:1026500010BD38B5002000900024002500BF3120B7
:10266000FFF7DBFF05460098401C00900098B0F58E
:10267000A06F01D0002DF2D03120FFF7CEFF08B1BE
:10268000012400E00024204638BD01460020A14A74
:10269000106820F0F80040EAC10010607047A049BF
:1026A00008607047024600209A4B586820F47C105E
:1026B00042EA01031843974B5860704798490866EF
:1026C000704701460020934A506820F003000843F9
:1026D000506070478F48406800F00C00704701461A
:1026E00000208C4A506820F0F0000843506070478A
:1026F00001460020874A506820F4E060084350609B
:10270000704701460020834A506820F4605040EA38
:10271000C1005060704729B17E4A527A02437D4B16
:102720005A7204E07B4A527A82437A4B5A7270475B
:102730007B49D8310860704701460020754A5068CF
:1027400020F440400843506070470021714A203215
:102750001170704A82F82010012802D004280AD192
:1027600004E001216B4A2032117005E00521694A1D
:102770002032117000E000BF00BF70476949086057
:1027800070476449096A0143624A116270476549AA
:1027900044390860704730B500210022002400232E
:1027A0005C4D6D6805F00C0121B1042905D00829A4
:1027B00023D105E05C4D056022E05B4D05601FE024
:1027C000544D6D6805F47012524D6D6805F48034F7
:1027D000022505EB92421CB9544D554305600BE0B0
:1027E0004C4D6D6805F400351DB1504D55430560E5
:1027F00002E04D4D5543056002E04B4D056000BFC2
:1028000000BF444D6D6805F0F0010909484D6B5C4F
:102810000568DD4045603F4D6D6805F4E061090ADB
:10282000434D6B5C4568DD4085603A4D6D6805F44D
:102830006051C90A3E4D6B5C4568DD40C560354D51
:102840006D6805F44041890B3A4D6B5CC568B5FB7A
:10285000F3F5056130BD29B12E4A526902432D4B73
:102860005A6104E02B4A526982432A4B5A617047ED
:1028700029B1284A92690243264B9A6104E0254A0D
:1028800092698243234B9A61704729B1214AD269E8
:102890000243204BDA6104E01E4AD26982431D4B99
:1028A000DA61704729B11B4AD2680243194BDA60DA
:1028B00004E0184AD2688243164BDA60704729B1A7
:1028C000144A12690243134B1A6104E0114A126957
:1028D0008243104B1A6170471249403908607047B3
:1028E0000F49C86470470B49C87170470948406A6E
:1028F00040F0807007494862704701460020054A51
:1029000092680A400AB1012000E0002070470149A6
:1029100088727047001002400000FFF8FFFFF6FECB
:10292000000042428004424200127A0000093D0049
:10293000260000203600002010B50446FB488442E3
:1029400009D101218803FFF7ADFF00214FF480403A
:10295000FFF7A8FF32E0F648844209D1012148047C
:10296000FFF7ADFF00214FF40030FFF7A8FF25E08F
:10297000F048844209D101218804FFF7A0FF00211B
:102980004FF48020FFF79BFF18E0EB48844209D109
:102990000121C804FFF793FF00214FF40020FFF747
:1029A0008EFF0BE0E548844208D101210805FFF7BE
:1029B00086FF00214FF48010FFF781FF10BD2DE945
:1029C000F04786B005460E460024A24600BFA14649
:1029D0000027B08900B100BF2F462C8A4CF6FF704B
:1029E0000440F08804432C82AC894EF6F310044076
:1029F000B08831890843718908430443AC81AC8AAB
:102A00004FF6FF400440B0890443AC8201A8FFF7B1
:102A1000C2FEC648874202D1DDF810A001E0DDF811
:102A20000CA0A88900F4004040B10AEBCA0000EBFA
:102A30000A1031684900B0FBF1F807E00AEBCA0060
:102A400000EB0A1031688900B0FBF1F86420B8FB94
:102A5000F0F004012009642101FB1089A88900F429
:102A6000004040B1322000EBC900B0FBF1F000F0B3
:102A70000700044308E0322000EB09106421B0FB9A
:102A8000F1F000F00F0004432C8106B0BDE8F087A0
:102A90004FF41651016000218180C18001810C2119
:102AA000418100218181704710B502460020108AC3
:102AB0004FF2FF0318400B884C8823438C88234334
:102AC000CC8823431843108210BD0021018041802F
:102AD0008180C180704721B1828942F40052828195
:102AE00004E082894DF6FF731A4082817047F0B589
:102AF0000346002400260025002040F66A17B9424C
:102B000000D100BF1846C1F3421401F01F0601278F
:102B100007FA06F5012C01D10C3004E0022C01D19A
:102B2000103000E014301AB107682F43076002E04C
:102B30000768AF430760F0BD1AB1838A0B438382F5
:102B400002E0838A8B4383827047028A4FF6F073D8
:102B50001A400282028A0A430282704782894FF237
:102B6000FF731A40828182890A438281704721B1B2
:102B7000828942F00202828104E082894FF6FD736D
:102B80001A4082817047028A4FF6DF731A40028230
:102B9000028A0A430282704721B1028A42F48042CB
:102BA000028204E0028A4BF6FF731A4002827047E9
:102BB000C1F308028280704701468888C0F308008C
:102BC0007047818941F0010181817047028BD2B247
:102BD0000283028B42EA012202837047028B02F4D5
:102BE0007F420283028B0A430283704721B1828AAB
:102BF00042F02002828204E0828A4FF6DF731A409C
:102C00008282704721B1828A42F01002828204E0FF
:102C1000828A4FF6EF731A408282704721B1828A0E
:102C200042F00802828204E0828A4FF6F7731A406B
:102C30008282704721B1828942F40042828103E09E
:102C40008289C2F30E028281704721B1828A42F4E6
:102C50000062828204E0828A4FF2FF731A4082820D
:102C60007047828A4FF6FB731A408282828A0A4337
:102C70008282704721B1828A42F00202828204E09D
:102C8000828A4FF6FD731A40828270470246002006
:102C9000B1F5007F00D100BF13880B400BB10120BC
:102CA00000E00020704701F40072B2F5007F00D10F
:102CB00000BFCA430280704770B50246002400235B
:102CC0000025002040F66A16B14200D100BFC1F3D2
:102CD000421501F01F03012606FA03F3012D02D16C
:102CE0009689334006E0022D02D1168A334001E076
:102CF000968A33400C12012606FA04F416883440F2
:102D000013B10CB1012000E0002070BD10B500220D
:102D1000002340F66A14A14200D100BF0A12012428
:102D20009440A3B2DC43048010BD00000038014091
:102D30000044004000480040004C0040005000406B
:102D4000704770B5064600F0D3F9056806F10B0030
:102D500020F00704B4429CBF002070BD2B466A6877
:102D6000BAB11068A04210D304F1080188423CBFF8
:102D70005068586007D35168101941601168091BE9
:102D8000016058601460101D70BD13465268002A1F
:102D9000E7D12146284600F0B7F90028DED170BD02
:102DA00070B50446051F00F0A3F90068002C14BF9D
:102DB000446870BD002C18BFAC423CBF204664681C
:102DC000F8D301680A18AA4218BF456003D12A68DF
:102DD00005461144016028684119A1421CBF6C607E
:102DE00070BD6168696021680844286070BD00009A
:102DF0000FB4044910B503AA029800F05DFA10BCA4
:102E00005DF814FB200000200FB41CB5074B06AA88
:102E10007B4469460090059800F01FFA002069463F
:102E200000F02EFA1CBC5DF814FB00006D040000DD
:102E30002DE9F0410E460446002020622046E1685C
:102E4000884730B3252805D0D4E901219047206A6E
:102E5000401CF2E7E168204600278847050018D0AB
:102E6000A5F14100192802D820354FF400673246F9
:102E7000294620462760FDF795F940B1012804D086
:102E8000F61D26F007060836D8E7361DD6E7284691
:102E9000DAE7206ABDE8F08170B50C460546012AE4
:102EA00005D02878800600D5EA69002302E00123D6
:102EB00005E05B1C934202D2E05C0028F9D1A869CE
:102EC000E618C01AA861286A184428622846AFF399
:102ED000008004E0D5E9012114F8010B9047B442C9
:102EE000F8D32846AFF3008070BD00002DE9F04113
:102EF0000646002410687529314616A510D0AFF398
:102F00000080002802DA404213A507E031688A07F2
:102F100001D512A502E0490704D511A5012401E05D
:102F2000AFF3008000210A2206F1240709E0B0FB7C
:102F3000F2FCB0FBF2F302FB1C0030307854184670
:102F4000491C0028F3D123462A463046BDE8F0410B
:102F500000F024B9000000002D0000002B0000004C
:102F60002000000070B5064600F0C6F8046805466B
:102F700030460A22002100F0B1F92C6070BD401EDD
:102F8000CAB210F8011F8A4202D00029F9D10020EC
:102F9000704710B5431E13F8014F002CFBD105E01C
:102FA00011F8014B002C03F8014B03D0521EF7D24D
:102FB0000021197010BD30B505460B462A4613F89E
:102FC000014B12F8010B08B1A042F8D01CB1002847
:102FD00002D06D1CF1E7284630BD10B5431C02E05D
:102FE00010F8011B71B18107FAD14FF0013202C80C
:102FF0008C1A8C4314EAC211F9D0C01A0A0603D005
:10300000C01E10BDC01A10BD0A0401D0801E10BD24
:103010000902FCD0401E10BD032A40F2308010F09F
:10302000030C00F0158011F8013BBCF1020F624463
:1030300098BF11F801CB00F8013B38BF11F8013BF4
:10304000A2F1040298BF00F801CB38BF00F8013BA1
:1030500011F0030300F07A81083AC0F0088051F8BB
:10306000043B083A51F804CBA0E80810F5E7121D1C
:103070005CBF51F8043B40F8043BAFF30080D2073B
:1030800024BF11F8013B11F801CB48BF11F8012B07
:1030900024BF00F8013B00F801CB48BF00F8012B2A
:1030A00070474FF000020429C0F0128010F0030CAA
:1030B00000F08081CCF1040CBCF1020F18BF00F8C5
:1030C000012BA8BF20F8022BA1EB0C0100F072B974
:1030D0005FEAC17C24BF00F8012B00F8012B48BF38
:1030E00000F8012B70477047704770477047000029
:1030F000004870478C010020004870478401002080
:10310000704770477047704738B504460A4600203C
:103110006946AFF30080002808BF38BD0246009919
:10312000204600F079F9012038BD012000F0E1B916
:10313000F8B5AFF30080054600200C46102000BF14
:103140000646A819A0420DD9324669460020AFF3C1
:103150000080070008BF00F0CCF90098A04218BF1B
:103160000546C419FFF7C4FF05600746F01D20F0AF
:1031700007004619284600F00AF8B44208BFF8BD17
:10318000A21B31463868BDE8F84000F045B900217F
:103190000160C0E901107047102070472DE9F04729
:1031A0000D4699469246044600F1240801688806B7
:1031B00004D5E06921F01001216000E00120A8425F
:1031C00001DD471B00E00027A1697A1902EB090025
:1031D000081AA0612078C00602D42046AFF3008010
:1031E000002608E0D4E901211AF806009047206A79
:1031F000401C761C20624E45F4DB2078C0060AD5C0
:103200002046AFF3008006E0D4E90121302090474A
:10321000206A401C2062381EA7F10107F4DC07E099
:10322000D4E9012118F805009047206A401C20626B
:10323000281EA5F10105F3DC2046AFF300802078BD
:10324000000602D50220BDE8F0870120FBE7000060
:1032500001694A1C02610878704700B58FB0CDE95A
:1032600001310021059105497944CDE9031011464A
:103270006846FFF7DDFD0FB000BD0000E5FFFFFF72
:103280000A6802F8010B0A60704710B5436913B170
:10329000AFF3008001E0FFF7FFFD012010BD1278C1
:1032A00000F124010A7000224A700122EDE7116842
:1032B0004FF0FF32E9E70000074B70B50D467B4445
:1032C000FFF7CBFF0446284600F00FF910B14FF08E
:1032D000FF3070BD204670BD1FEDFFFF2DE9F047A8
:1032E00091460F4680460446002614F8015B2DB136
:1032F00000F08AF80068405DC007F6D12B2D02D09F
:103300002D2D18D0641E4A463946204600F09EF8FE
:1033100027B13968A14201D1C7F800804FF00204FB
:1033200071050BD54042002803DDFFF7E5FE046080
:10333000A007BDE8F08746F48066E4E70028F8DAE5
:10334000FFF7DAFE04606FF00040F2E710B5203AB4
:10335000C0F00B80B1E81850203AA0E81850B1E84E
:103360001850A0E81850BFF4F5AF5FEA027C24BF04
:10337000B1E81850A0E8185044BF18C918C0BDE8FB
:1033800010405FEA827C24BF51F8043B40F8043BC4
:1033900008BF7047D20728BF31F8023B48BF11F879
:1033A000012B28BF20F8023B48BF00F8012B7047D3
:1033B0004FF0000200B5134694469646203922BFCE
:1033C000A0E80C50A0E80C50B1F12001BFF4F7AF19
:1033D000090728BFA0E80C5048BF0CC05DF804EBFB
:1033E000890028BF40F8042B08BF704748BF20F869
:1033F000022B11F0804F18BF00F8012B704700001E
:10340000004870478401002010B500F09FF8001DAF
:1034100010BD00BF7D020000034640688C460028B6
:1034200018BF88423CBF03464068F8D31868184468
:10343000884207D00CF1030020F00700001D411A5C
:10344000521A0146081D0A60FFF7AABC2DE9F05F79
:10345000824615468B4600270AF10104B9460078DA
:10346000302801D09DB113E014F8010B0127782812
:1034700003D0582801D045B10AE00DB1102D07D175
:10348000002714F8010B102502E0082500E00A25AA
:103490000026B0460EE005FB080005FB06F10127FB
:1034A0001FFA80F801EB1046B6F5803F00D3B9460D
:1034B00014F8010B294600F04DF80028EBDABBF1B7
:1034C000000F05D00FB1641E00E05446CBF8004059
:1034D000B9F1000F06D0FFF70FFE02210160C81EF0
:1034E000BDE8F09F48EA0640FAE7007B00F0800064
:1034F000704710B500F04AF8BDE8104000F041B840
:103500007546FFF77DFFAE4605006946534620F03D
:103510000700854618B020B5FEF70EFEBDE8204036
:103520004FF000064FF000074FF000084FF0000B7F
:1035300021F00701AC46ACE8C009ACE8C009ACE832
:10354000C009ACE8C0098D467047000000487047CC
:10355000A40100203A2800D2303820F02002412A6D
:1035600001D3A2F13700884201D34FF0FF307047FA
:1035700010B50446AFF300802046BDE81040FCF7CC
:1035800033BE002801D0FEF725BD704710B50128D5
:1035900005D0002103A000F021F8012010BD09A1F1
:1035A000F8E7000053494752544D454D3A204F75B6
:1035B00074206F662068656170206D656D6F72792B
:1035C000000000003A2048656170206D656D6F72E3
:1035D0007920636F727275707465640070B505460A
:1035E0000C460A2000E06D1CFEF7F7FC35B1287888
:1035F0000028F8D102E0641CFEF7EFFC14B120783B
:103600000028F8D1BDE870400A20FEF7E6BC0000B3
:103610004FF0013C50F8042B51F8043B9A4221D161
:10362000A2EB0C03934313EACC1317D150F8042BED
:1036300051F8043B9A4215D1A2EB0C03934313EAD1
:10364000CC130BD150F8042B51F8043B9A4209D10A
:10365000A2EB0C03934313EACC13DBD04FF0000032
:10366000704700BFD01A01BAB1FA81F101F0180118
:1036700022FA01F0CB40C1F12001DBB2C0B2C01A86
:103680002CFA01F3D11A914311EAC311E6D1704724
:1036900010B500290AD00878002807D005487844DA
:1036A000FFF7B6FF002801D0002010BD0248784483
:1036B00010BD00004A00000042000000C0360008B3
:1036C0006D79666972737400F83700080000002095
:1036D0003C0000006C010008343800083C00002069
:1036E000AC07000088010008100100004300000042
:1036F000F8FFFFFF00404040404040404040414113
:1037000041414140404040404040404040404040B6
:103710004040404040050202020202020202020250
:10372000020202020220202020202020202020024D
:1037300002020202020290909090909010101010DD
:103740001010101010101010101010101010101079
:10375000020202020202888888888888080808080D
:1037600008080808080808080808080808080808D9
:103770000202020240000000000000000000000001
:103780000000000000000000000000000000000039
:103790000000000000000000000000000000000029
:1037A0000000000000000000000000000000000019
:1037B0000000000000000000000000000000000009
:1037C00000000000000000000000000000000000F9
:1037D00000000000000000000000000000000000E9
:1037E00000000000000000000000000000000000D9
:1037F000000000000000000000A24A0400000000D9
:10380000000000000102030406070809010000008F
:1038100000000000000000000000000000000000A8
:103820000000010203040102030406070809020460
:043830000608000086
:0400000508000131BD
:00000001FF
